:020000040000FA
:060000000A128A110C280F
:10000800FE00030EF1000A08F2000A128A15072CF6
:100018000A128A110F28F801F901FA018312031351
:10002800D40183160313CB01CC01CD01CE01CF013E
:10003800D00183010A128A118B2BFF0000308A003D
:100048007F08820726280A128A15142B83120313A5
:100058002D088039B2003208B7002D08B2003207E7
:10006800B3003308BD00AC1F3A283B283C283D1498
:100078003D0803194028412850283D0A031D4528FA
:1000880046284E280030AD000030AC000030AB00F0
:100098000030AA00AC1758280030AD000030AC0082
:1000A8000030AB000030AA0031088039B2003208B5
:1000B800B7063108B2003207B3003308BC00B01FDE
:1000C8006628672868283C143C0803196C286D28A2
:1000D8007C283C0A031D712872287A280030B10058
:1000E8000030B0000030AF000030AE00B0178428F8
:1000F8000030B1000030B0000030AF000030AE007A
:100108003C080319882889288E283D08031D8D2856
:100118008E2897280030AD000030AC000030AB00CE
:100128000030AA008A2B2A08B2003208F3003008EF
:100138000A128A15AC230A128A117408831203134F
:10014800C3007308C2004208B200B301B401B5018C
:100158003508BB003408BA003308B9003208B800C3
:100168004308B200B301B401B5013508C100340831
:10017800C0003308BF003208BE002B08B2003208A6
:10018800F3002F080A128A15AC230A128A11740880
:1001980083120313C3007308C2004208B200B301FC
:1001A800B401B5013208B807330803110318013E3A
:1001B8000319DF28B907340803110318013E03198E
:1001C800E628BA07350803110318013E0319ED287C
:1001D800BB074308B200B301B401B5013208BE073A
:1001E800330803110318013E0319FB28BF0734081D
:1001F80003110318013E03190229C007350803112A
:100208000318013E03190929C1072C08B200320856
:10021800F3002E080A128A15AC230A128A117408F0
:1002280083120313C3007308C2004208B200B3016B
:10023800B401B5013208B807330803110318013EA9
:1002480003192729B907340803110318013E0319B4
:100258002E29BA07350803110318013E0319352959
:10026800BB074308B200B301B401B5013208BE07A9
:10027800330803110318013E03194329BF07340843
:1002880003110318013E03194A29C0073508031151
:100298000318013E03195129C1070830B2000310A1
:1002A800B80DB90DBA0DBB0DB20B53292B08B2000E
:1002B8003208F3002E080A128A15AC230A128A1192
:1002C800740883120313C3007308C2004208B20003
:1002D8004308B300B401B5013208B8073308031165
:1002E8000318013E03197929B907340803110318C3
:1002F800013E03198029BA07350803110318013E86
:1003080003198729BB072A08B2003208F3002F080F
:100318000A128A15AC230A128A117408831203136D
:10032800C3007308C2004208B2004308B300B40116
:10033800B5013208B807330803110318013E031941
:10034800A629B907340803110318013E0319AD297A
:10035800BA07350803110318013E0319B429BB076E
:100368000830B2000310B80DB90DBA0DBB0DB20BB1
:10037800B6292A08B2003208F3002E080A128A1594
:10038800AC230A128A11740883120313C30073087A
:10039800C2004208B2004308B300B401B5013208F4
:1003A800B807330803110318013E0319DC29B907FC
:1003B800340803110318013E0319E329BA07350865
:1003C80003110318013E0319EA29BB072B08B200E1
:1003D8003208F30030080A128A15AC230A128A116F
:1003E800740883120313C3007308C2004208B200E2
:1003F8004308B300B401B5013208BE07330803113E
:100408000318013E0319092ABF073408031103180A
:10041800013E0319102AC007350803110318013ECD
:100428000319172AC1072C08B2003208F3002F0855
:100438000A128A15AC230A128A117408831203134C
:10044800C3007308C2004208B2004308B300B401F5
:10045800B5013208BE07330803110318013E03191A
:10046800362ABF07340803110318013E03193D2A31
:10047800C007350803110318013E0319442AC107B0
:100488002C08B2003208F30030080A128A15AC238F
:100498000A128A11740883120313C3007308C20076
:1004A8004208B2004308B300B401B5010830031094
:1004B800B20DB30DB40DB50DFF3E031D5B2A320816
:1004C800BE07330803110318013E03196C2ABF073E
:1004D800340803110318013E0319732AC0073508AD
:1004E80003110318013E03197A2AC1073808B2001C
:1004F8003908B3003A08B4003B08B50018300310B7
:10050800B50CB40CB30CB20CFF3E031D832A3208A1
:10051800BE07330803110318013E0319942ABF07C5
:10052800340803110318013E03199B2AC007350834
:1005380003110318013E0319A22AC1070830B200AB
:100548000310B80DB90DBA0DBB0DB20BA42A3D08A6
:100558003C07B200B301B30D3208823EC200330833
:100568000318013EFF3EC300D62A0130B200031033
:10057800BE0DBF0DC00DC10DB20BBB2ABB1FC52AD6
:10058800C62AC72A3E140130B2000310B80DB90DAF
:10059800BA0DBB0DB20BC92AFF30C2070318C30A34
:1005A800FF30C307C01FD92ADA2AB92ABC01BB1FEA
:1005B800DE2ADF2AFB2AFF303805B200FF30390572
:1005C800B300FF303A05B4007F303B05B50035086D
:1005D8003404330432040319F22AF32AF62ABC013C
:1005E800BC0AFB2A3E1CF92AFA2AFB2AF32A3C08F1
:1005F8000319FF2A002B312B0130BE0700300318E6
:100608000130BF07003003180130C007003003185D
:100618000130C107411C112B122B312B3E08B200AF
:100628003F08B3004008B4004108B5000130B600E7
:10063800350DB50CB40CB30CB20CB60B1C2B35082D
:10064800C1003408C0003308BF003208BE000130C2
:10065800C2070318C30A0030C3074308803AFF00E3
:1006680080307F02031D3A2BFF304202031C3D2BD2
:100678003E2B492B7F3083120313C1008030C0000A
:100688000030BF000030BE007E2B831203134308E6
:10069800803AFF0080307F02031D542B0130420254
:1006A8000318572B582B642B003083120313C100F7
:1006B8000030C0000030BF000030BE00B7017E2B04
:1006C800831203134208B2003208BD00FF30BE0592
:1006D800FF30BF057F30C0050030C1053D1C752BBC
:1006E800762B772BC0173D08B2000310320CB300ED
:1006F8003308C1003708B2003208C1044108AD0010
:100708004008AC003F08AB003E08AA0008000A12E7
:100718008A1577240A128A110A128A1552230A1294
:100728008A110A128A15F9240A128A110A128A11E0
:10073800F2270A128A11F701F70A01300A128A15FC
:1007480047250A128A11AA3083120313A0008030A9
:10075800A1000A128A15D5230A128A1183160313D7
:10076800500883120313CF00D001D101D2015208DF
:10077800F6005108F5005008F4004F08F300013066
:100788000A128A1544270A128A117608831203135B
:10079800B1007508B0007408AF007308AE003C30B3
:1007A800AD00A030AC009030AB002E30AA000A1289
:1007B8008A112A200A128A11831203132D08C700EE
:1007C8002C08C6002B08C5002A08C4000A128A157E
:1007D800C8260A128A11831203134408D300530847
:1007E80083160313C9004F0883120313CF00D001E7
:1007F800D101D2015208F6005108F5005008F40062
:100808004F08F30001300A128A1544270A128A1188
:10081800760883120313B1007508B0007408AF009E
:100828007308AE003C30AD00A030AC009030AB0097
:100838002E30AA000A128A112A200A128A1183125B
:1008480003132D08C7002C08C6002B08C5002A086A
:10085800C4000A128A15C8260A128A1183120313C1
:100868004408D300530883160313C800B830831212
:100878000313CF004F08B4008316031349088312EB
:100888000313D000D1015008B5005108B600A030BC
:100898000A128A158B230A128A11C0308312031395
:1008A800CF004F08B40083160313480883120313BC
:1008B800D000D1015008B5005108B600B4300A1272
:1008C8008A158B230A128A11023083120313CF0070
:1008D8004F08F70002300A128A1547250A128A11B2
:1008E800A03083120313A0000030A1000A128A1559
:1008F800D5230A128A11B43083120313A0000030E2
:10090800A1000A128A15D5230A128A1120308312EF
:100918000313A0002030A1000A128A15D5230A1259
:100928008A11063083120313D1001330D000AD3082
:10093800CF00CF0B9D2CD00B9D2CD10B9D2C83125F
:1009480003139F18A82CA92CB32C2030831203134F
:10095800CF00CF0BAD2C0000831203139F14831616
:10096800031350080A128A1171270A128A110230D9
:1009780083120313D1004530D000A930CF00CF0B2C
:10098800C32CD00BC32CD10BC32C72300A128A157E
:1009980037230A128A11023083120313D10045301B
:1009A800D000A930CF00CF0BD72CD00BD72CD10B30
:1009B800D72C831603134E088312031399000230B1
:1009C80083120313D1004530D000A930CF00CF0BDC
:1009D800EB2CD00BEB2CD10BEB2C2E30831203130A
:1009E8009900023083120313D1004530D000A9309A
:1009F800CF00CF0BFD2CD00BFD2CD10BFD2C83167B
:100A080003134D0883120313990002308312031352
:100A1800D1004530D000A930CF00CF0B112DD00B1D
:100A2800112DD10B112D831603134C0883120313B8
:100A38009900023083120313D1004530D000A93049
:100A4800CF00CF0B252DD00B252DD10B252D7030A8
:100A58000A128A1537230A128A11831603134F08BC
:100A68000A128A1171270A128A110230831203139B
:100A7800D1004530D000A930CF00CF0B412DD00B8D
:100A8800412DD10B412D8E300A128A1537230A12B7
:100A98008A11023083120313D1004530D000A930E7
:100AA800CF00CF0B552DD00B552DD10B552D8316BF
:100AB80003134E08831203139900023083120313A1
:100AC800D1004530D000A930CF00CF0B692DD00B15
:100AD800692DD10B692D2E30831203139900023032
:100AE80083120313D1004530D000A930CF00CF0BBB
:100AF8007B2DD00B7B2DD10B7B2D831603134D083B
:100B0800831203139900023083120313D100453076
:100B1800D000A930CF00CF0B8F2DD00B8F2DD10B4C
:100B28008F2D831603134C08831203139900023088
:100B380083120313D1004530D000A930CF00CF0B6A
:100B4800A32DD00BA32DD10BA32D70300A128A151B
:100B580037230A128A11831603134B080A128A11C3
:100B680071270A128A11831603134E080A128A156E
:100B78006E230A128A11831603134D080A128A1566
:100B88006E230A128A11831603134C080A128A1557
:100B98006E230A128A11023083120313D1004530E2
:100BA800D000A930CF00CF0BD72DD00BD72DD10B2C
:100BB800D72D53300A128A1537230A128A110230A8
:100BC80083120313D1004530D000A930CF00CF0BDA
:100BD800EB2DD00BEB2DD10BEB2D31300A128A15F2
:100BE80037230A128A11023083120313D1004530C9
:100BF800D000A930CF00CF0BFF2DD00BFF2DD10B8C
:100C0800FF2D0B300A128A1537230A128A11831214
:100C180003138C1E102E112E0B2E1A08CF004F080E
:100C280083160313CA002B304A06031D1C2E1D2EE3
:100C3800272E4B08013E83120313CF004F0883165B
:100C48000313CB00B22B2D304A06031D2C2E2D2E5C
:100C5800372E4B08FF3E83120313CF004F0883162D
:100C68000313CB00B22BB22B0A128A110C28831261
:100C78000313B3005A2F253032060319442E452E8C
:100C88006B2E330A84008313000803194C2E4D2E53
:100C98005C2E3208AB002B08F300330A84000008EE
:100CA8000A128A1121200A128A11831203133E2E76
:100CB8003208AB0033088400000884002B08800049
:100CC8000130AB00330884002B0880073E2EAE01AC
:100CD8000130A907FF30290784000A128A150A2063
:100CE8000A128A11B200AB00AC012C08003A0319B1
:100CF8007E2E5A2F2B08003A03196E2F643A0319D7
:100D0800892E0D3A0319892E5A2F2A088400831335
:100D18000008AB00023080072B0884000008B000F0
:100D2800840A0008B100B11F9A2E9B2EA42E03300E
:100D3800AB002B08AE04B009B109B00A0319B10A17
:100D4800B201B20A3208AB002B07013E84000A1236
:100D58008A150A200A128A11AC000A128A150A207A
:100D68000A128A11AD002D083102031DBD2E2C0870
:100D780030020318C02EC12EC22ECC2E0130AB007B
:100D88002B08B20705303206031DCB2ECC2EA62E1B
:100D98002E0803390319D12ED22EF52E330A8400DA
:100DA800831300080319D92EDA2EE72E2D30AB0055
:100DB8002B08F300330A840000080A128A11212044
:100DC8000A128A11F52E2D30AB0033088400000872
:100DD80084002B0880000130AB00330884002B0806
:100DE8008007831203133208AB002B08AF004F2F84
:100DF8000A30A3000030A4002F08AB002B07013EE7
:100E080084000A128A150A200A128A11F3000A12AB
:100E18008A150A200A128A11F4003108F6003008EF
:100E2800F5000A128A15B3240A128A11740883126B
:100E38000313A6007308A5000A128A153B240A1298
:100E48008A11831203132308303EAC002C08B20029
:100E5800330A8400831300080319332F342F412FDA
:100E68003208AB002B08F300330A840000080A128A
:100E78008A1121200A128A114F2F3208AB00330839
:100E88008400000884002B0880000130AB00330880
:100E980084002B088007FF3083120313AB002B0854
:100EA800AF072F0A031D592F5A2FFC2E013083122A
:100EB8000313A907FF30290784000A128A150A209C
:100EC8000A128A11AB002B08B2003208031D6D2FDD
:100ED8006E2F3F2EA901AA01080083120313A70051
:100EE8006430F3000030F4002708A400A5012408AA
:100EF800F5002508F6000A128A155F260A128A11DB
:100F0800730883120313A600260883160313CE0062
:100F18006430F3000030F400831203132708A400A0
:100F2800A5012408F5002508F6000A128A159F2550
:100F38000A128A11730883120313A6002608F900FF
:100F48000A30F3000030F4007908A400A501240851
:100F5800F5002508F6000A128A155F260A128A117A
:100F6800730883120313A600260883160313CD0003
:100F78000A30F3000030F400790883120313A40048
:100F8800A5012408F5002508F6000A128A159F25F0
:100F98000A128A11730883120313A60026088316FF
:100FA8000313CC004E08303E83120313A400240818
:100FB80083160313CE004D08303E83120313A4009A
:100FC800240883160313CD004C08303E8312031304
:100FD800A400240883160313CC00080000300A126A
:100FE8008A151D230A128A1101300A128A151D2337
:060FF8000A128A11080034
:10100000FF1B0A2883137F1883170008840A03191B
:10101000FF0A080008308A000408840A82070034A6
:10102000013400340A34003464340034E8340334C6
:10103000103427340D3420342A3420347034613491
:101040007234613420347334623465347234203441
:1010500065346C34203476346F346C3474346134D9
:101060006A34653420346434653420346C346F342D
:101070007334203470346F34743473340D3400346A
:101080000D3420342D3420347034613472346134A2
:101090002034643465346334723465346D346534BB
:1010A0006E3474346F342034643465346C342034DA
:1010B00063346F346E347434613464346F34723436
:1010C0000D3400340D3420342B342034703461342A
:1010D00072346134203475346D3465346E34743454
:1010E0006F342034643465346C34203463346F34AA
:1010F0006E347434613464346F34723420340D349B
:101100000034563461346C346F34723420346434B7
:101110006534203476346F346C34743461346A341A
:1011200065342034643465346C34203450344F34A6
:10113000543431343A340D340034563461346C3420
:101140006F347234203464346534203476346F3430
:101150006C34743461346A346534203464346534F6
:101160006C34203450344F34543432343A340D34E7
:101170000034533431343A3420342034533432344C
:101180003A3420342034533433343A340034253460
:101190006434203456342034203420340034253450
:0A11A0006434203456342034003447
:10161C00F30073088312031388000800831203136A
:10162C000C1E192B1A2B142B730899000800F600AA
:10163C0083120313091076080A128A150E230A1254
:10164C008A158312031309150630F5003030F400A7
:10165C00F40B2E2BF50B2E2B000083120313091108
:10166C00080083120313B700B8010130B40034082A
:10167C00B9007030B4003408B6003708B400340830
:10168C00A9003630B5003508AA0038300A128A1184
:10169C003B260A128A15080067308316031399003B
:1016AC009A0183160317871583160313181518123E
:1016BC00831203139817181683160313181398160E
:1016CC008312031318138B170B170C128C120800B0
:1016DC00F5007508F4007408F6007608F400740838
:1016EC00F70083120313091477080A128A150E23C4
:1016FC000A128A158312031309150D30F400F40B2A
:10170C00852B831203130911080083120313B900EC
:10171C003908B7003708BB00BC013530B7003708B3
:10172C00BA003408B7003708A9003A30B8003808B6
:10173C00AA003B300A128A113B260A128A15831220
:10174C0003133B08840083138001080083120313E6
:10175C00A400A001A1017308F500F6017508A20010
:10176C007608A300241CBB2BBC2BC22B2208A00781
:10177C000318A10A2308A10701300310A20DA30D21
:10178C00FF3E031DC32B0310A40C2408031DCF2BF9
:10179C00D02BB82B2108F4002008F300080083128A
:1017AC000313A201A301F42B2208200784002308B1
:1017BC000318230A2107FF000A128A1500200A12B7
:1017CC008A150A128A156E230A128A1501308312A1
:1017DC000313A2070318A30A0030A307220820074B
:1017EC00840023080318230A2107FF000A128A1514
:1017FC0000200A128A15003A031D052C062CDA2B40
:10180C000800831203130C1F0C2C0D2C322C1F0CF4
:10181C00F000700C0F39003A031D152C162C212CDE
:10182C001F08C33904389F001E08F0007008831687
:10183C000313D000322C1F0CF000700C0F39013A3E
:10184C00031D292C2A2C322CC3309F051E08F000B6
:10185C00700883160313CF0083120C1372088A00CE
:10186C00710E8300FE0E7E0E0900831203132308F3
:10187C0024040319422C432C722CA801A80A512CC5
:10188C0001300310A30DA40DFF3E031D472C0130A6
:10189C00A7002708A807A41F542C552C462C240855
:1018AC002602031D5B2C23082502031C5E2C5F2CD7
:1018BC00652C2308A5022408031CA603A6020130EC
:1018CC000310A40CA30CFF3E031D662C0130A802D0
:1018DC00031D712C722C552C2608A4002508A3007E
:1018EC0008000330831603178800831603130514AE
:1018FC008514880189010F128F160F170F140C17FE
:10190C00831203130C138B170B17831603138C12F0
:10191C000C1283120313850186018701880189014A
:10192C0001300A128A15FA250A128A158316031336
:10193C001812181583160317871119308316031301
:10194C00990001309A008312031398171813181674
:10195C008316031318139816080083120313A1019E
:10196C00A201730874040319BC2CBD2CF42CA00127
:10197C00A00ACB2C01300310F30DF40DFF3E031D18
:10198C00C12C0130F7007708A007F41FCE2CCF2C08
:10199C00C02C01300310A10DA20DFF3E031DD02C55
:1019AC0074087602031DDC2C73087502031CDF2CF3
:1019BC00E02CE72C7308F5027408031CF603F602FE
:1019CC00211401300310F40CF30CFF3E031DE82C22
:1019DC000130A002031DF32CF42CCF2C2208F400B0
:1019EC002108F300080000300A128A150E230A128F
:1019FC008A151A3083120313A100F730A000A00B34
:101A0C00052DA10B052D0A2D30300A128A151D2328
:101A1C000A128A15073083120313A1007C30A00030
:101A2C00A00B162DA10B162D000030300A128A15B2
:101A3C001D230A128A15413083120313A000A00B38
:101A4C00252D282D30300A128A151D230A128A15CD
:101A5C003C300A128A151D230A128A1508300A1204
:101A6C008A151D230A128A1501300A128A151D23A4
:101A7C000A128A1506300A128A151D230A128A15B3
:101A8C00080083120313A2002203031D4E2D4F2DB9
:101A9C00742D77087F3EA0002008A5002508A00023
:101AAC0004300310A00CFF3E031D572D2008A1008D
:101ABC002108A30025080F39A0002008A400230842
:101ACC000A128A151D230A128A158312031324087D
:101ADC000A128A151D230A128A159E2D023022061F
:101AEC00031D792D7A2D9E2D7708BF3EA00020086E
:101AFC00A5002508A00004300310A00CFF3E031D18
:101B0C00822D2008A1002108A3002508F039A0008F
:101B1C002008A40023080A128A151D230A128A150C
:101B2C008312031324080A128A151D230A128A151C
:101B3C00080083120313A101F61FA52DA62DAD2DB0
:101B4C00F509F609F50A0319F60AA101A10AF41F11
:101B5C00B02DB12DB62DF309F409F30A0319F40ACB
:101B6C00730874040319BB2DBC2DEB2DA001A00A26
:101B7C00CA2D01300310F30DF40DFF3E031DC02DD3
:101B8C000130F7007708A007F41FCD2DCE2DBF2D07
:101B9C0074087602031DD42D73087502031CD72D0F
:101BAC00D82DDE2D7308F5027408031CF603F6021B
:101BBC0001300310F40CF30CFF3E031DDF2D01303C
:101BCC00A002031DEA2DEB2DCE2D21080319EF2DBC
:101BDC00F02DF52DF509F609F50A0319F60A760824
:101BEC00F4007508F3000800F500482EC33083128A
:101BFC0003139F052130F300F30B022E8312031302
:101C0C001F139F131F14831603139F139F121F126E
:101C1C005E2EC330831203139F052130F300F30BA8
:101C2C00152E831203131F179F131F1483160313F0
:101C3C009F139F121F125E2EC330831203139F0536
:101C4C002130F300F30B282E831203131F139F175D
:101C5C001F14831603139F139F121F125E2EC33083
:101C6C00831203139F052130F300F30B3B2E8312D9
:101C7C0003131F179F171F14831603139F139F1211
:101C8C001F125E2E7508F300F4017408003A031954
:101C9C00502E5E2E7308003A0319FC2D013A0319DD
:101CAC000F2E033A0319222E013A0319352E5E2EFC
:101CBC00080083120313A101F41F652E662E6D2EEE
:101CCC00F309F409F30A0319F40AA101A10AF61F96
:101CDC00702E712E7A2EF509F609F50A0319F60AFB
:101CEC000130F7007708A106A201A3017308740460
:101CFC000319812E822EB92EA001A00A902E01303C
:101D0C000310F30DF40DFF3E031D862E0130F7007A
:101D1C007708A007F41F932E942E852E0130031004
:101D2C00A20DA30DFF3E031D952E74087602031D14
:101D3C00A12E73087502031CA42EA52EAC2E7308BD
:101D4C00F5027408031CF603F6022214013003108A
:101D5C00F40CF30CFF3E031DAD2E0130A002031D4D
:101D6C00B82EB92E942E21080319BD2EBE2EC32ECB
:101D7C00A209A309A20A0319A30A2308F400220842
:101D8C00F3000800031083120313460D470DC8001F
:101D9C004808CE004E08031DD42ED52EDE2E003062
:101DAC00C7000030C6000030C5000030C400432F0F
:101DBC004408C8004508C9004608CA004708CB00BB
:101DCC001F300310CB0CCA0CC90CC80CFF3E031DF2
:101DDC00E72E4808CC004C08CD00C617FF30C405D0
:101DEC00FF30C505FF30C6050030C7059630CE0262
:101DFC00CE1F012F022F1C2F4E08803A973E03183E
:101E0C00082F092F0A2FD52E01300310C70CC60C32
:101E1C00C50CC40CFF3E031D0B2F0130C800480835
:101E2C00CE07031D1A2F1B2F0A2F332F20304E02E3
:101E3C00031C212F222F2E2FD52E0130C80003106A
:101E4C00C40DC50DC60DC70DC80B252F0130CE0214
:101E5C004E08031D322F332F232F4D080319372F14
:101E6C00382F432FC409C509C609C709C40A031969
:101E7C00C50A0319C60A0319C70A080083120313FB
:101E8C00A400240803194B2F4C2F602FF61F4F2F43
:101E9C00502F602F7309A6007409A7007509A800BC
:101EAC007609A900A60A0319A70A0319A80A031997
:101EBC00A90A682F7608A9007508A8007408A7005D
:101ECC007308A6007608750474047304031D6F2F41
:101EDC00702F792F0030F6000030F5000030F40040
:101EEC000030F300FF2F9630A0002008A5008B2FA8
:101EFC000130A0002008A50701300310A90CA80C84
:101F0C00A70CA60CFF3E031D832FFE302905031DD5
:101F1C00902F912F7E2FAD2F0130A0002008A50708
:101F2C000130A607003003180130A7070030031852
:101F3C000130A807003003180130A9070130031045
:101F4C00A90CA80CA70CA60CFF3E031DA52FFF3057
:101F5C002905031DB22FB32F922FBF2F0130A502DD
:101F6C000130A0000310A60DA70DA80DA90DA00B04
:101F7C00B82FA81BC22FC32FC92F0230250203185C
:101F8C00C82FC92FB42F2518CC2FCD2FD52FFF300C
:101F9C00A605FF30A7057F30A805FF30A905031063
:101FAC00A50C2508A000A101A201A3011830031063
:101FBC00A00DA10DA20DA30DFF3E031DDD2F2008CA
:101FCC00A6042108A7042208A8042308A9042408AD
:101FDC000319F12FF22FF72FF61FF52FF62FF72FEE
:101FEC00A9172908F6002808F5002708F400260888
:041FFC00F3000800E6
:04400E00D420FF3F7C
:00000001FF
