:020000040000FA
:060000000A128A11EF2F25
:10000E00F200831203131F083F3940389F008316F6
:10001E0003139F019E28831603170814C3308312FF
:10002E0003139F05D2288316031788148312031314
:10003E001F08C33904389F00D228831603170815EA
:10004E00831203131F08C33908389F00D228831662
:10005E0003178815831203131F08C3390C389F002A
:10006E00D228831603170816831203131F08C339E9
:10007E0010389F00D2288316031788168312031395
:10008E001F08C33914389F00D22883160317081788
:10009E00831203131F08C33918389F00D228831602
:1000AE0003178817831203131F08C3391C389F00C8
:1000BE00D228831603170914831203131F08C3399A
:1000CE0020389F00D2288316031789148312031336
:1000DE001F08C33924389F00D22883160317091529
:1000EE00831203131F08C33928389F00D2288316A2
:1000FE0003178915831203131F08C3392C389F0069
:10010E00D228831603170916831203131F08C33947
:10011E0030389F00D22883160317891683120313D3
:10012E001F08C33934389F00D2280030E1287208E6
:10013E00F000F1017108003A0319A6289C287008F6
:10014E00003A03191228013A03191A28033A03191F
:10015E002428013A03192E28073A03193828013AA0
:10016E0003194228033A03194C28013A0319562859
:10017E000F3A03196028013A03196A28033A031942
:10018E007428013A03197E28073A03198828013A80
:10019E00031992289C281F145330F000F00BD52819
:1001AE00831203139F149F1CDD28DE28DF28DA2814
:1001BE001F101E0808000A168A15B2210A128A118B
:1001CE000A168A1596240A128A110A168A1593217E
:1001DE000A128A110A168A1593210A128A11F4013B
:1001EE00F40A01300A168A1507220A128A11A23061
:1001FE00F3008030F4000A168A1513230A128A11AE
:10020E0000300A128A1107200A128A11831603136C
:10021E00CB004B08D90001300A128A1107200A12AE
:10022E008A1183160313CB004B08D8003C3083127F
:10023E000313A700A030A6009030A5002E30A40016
:10024E00831603135908CB00CC01CD01CE014E0805
:10025E00F3004D08F2004C08F1004B08F00001309D
:10026E000A168A15CB250A128A11730883120313F4
:10027E00AB007208AA007108A9007008A8000A1243
:10028E008A159F240A128A118312031327088316D4
:10029E000313D60083120313260883160313D50007
:1002AE0083120313250883160313D400831203133A
:1002BE00240883160313D3003C3083120313A700C4
:1002CE00A030A6009030A5002E30A4008316031394
:1002DE005808CB00CC01CD01CE014E08F3004D08DD
:1002EE00F2004C08F1004B08F00001300A168A1596
:1002FE00CB250A128A11730883120313AB007208FE
:10030E00AA007108A9007008A8000A128A159F2475
:10031E000A128A1183120313270883160313D200BD
:10032E0083120313260883160313D10083120313BB
:10033E00250883160313D000831203132408831693
:10034E000313CF009130CB004B08A0005608A40039
:10035E005508A3005408A2005308A1005208A80093
:10036E005108A7005008A6004F08A5000030A900AC
:10037E00AA00DA300A168A113E250A128A11F401F1
:10038E00F40A02300A168A1507220A128A11DA3086
:10039E00F3000030F4000A168A1513230A128A118C
:1003AE00033083160313CD008A30CC005530CB00BA
:1003BE00CB0BDF29CC0BDF29CD0BDF29F1280A125D
:1003CE008A110028831603134608F3004508F2002D
:1003DE004408F1004308F0000030F7000030F6004A
:1003EE000030F5000030F4000A168A1599230A121F
:1003FE008A110318032A042AAC2A8316031346080B
:10040E0083120313D40083160313450883120313B8
:10041E00D30083160313440883120313D2008316EA
:10042E000313430883120313D1000A128A15C42042
:10043E000A128A11831203135408530452045104EE
:10044E00031D2A2A2B2AAC2A831603134208803A4C
:10045E00FF0080307F02031D362A02304102031C4A
:10046E00392A3A2AAC2A831603133C08F3003B08B8
:10047E00F2003A08F1003908F0004030F7008930F8
:10048E00F6007030F5005F30F4000A168A1109206C
:10049E000A128A110318542A552A5E2AF730831637
:1004AE000313C1070318C20AFF30C207662AF830C9
:1004BE0083160313C1070318C20AFF30C20741088F
:1004CE000A128A1540210A128A1183120313410857
:1004DE0083160313BC008312031340088316031301
:1004EE00BB00831203133F0883160313BA00831253
:1004FE0003133E0883160313B9004608F30045089C
:10050E00F2004408F1004308F0003C08F7003B08F5
:10051E00F6003A08F5003908F4000A168A15422743
:10052E000A128A11730883160313C0007208BF00E3
:10053E007108BE007008BD000030C6000030C50056
:10054E000030C4000030C300302B8316031346085E
:10055E0083120313D4008316031345088312031367
:10056E00D30083160313440883120313D200831699
:10057E000313430883120313D1000A128A15C420F1
:10058E000A128A1183120313540883160313C00030
:10059E0083120313530883160313BF00831203132E
:1005AE00520883160313BE008312031351088316D9
:1005BE000313BD004008F3003F08F2003E08F100AF
:1005CE003D08F00000300A168A15CB250A128A1152
:1005DE00730883120313E9007208E8007108E7003C
:1005EE007008E60083160313460883120313ED000A
:1005FE0083160313450883120313EC0083160313AB
:10060E00440883120313EB0083160313430883126B
:10061E000313EA000A168A152B220A128A11831274
:10062E000313690883160313C600831203136808A5
:10063E0083160313C500831203136708831603136F
:10064E00C40083120313660883160313C300C1018B
:10065E00C201CA01CA0A4A08AB0001300310AB0D31
:10066E00FF3E031D352B03102B0D693E84000A122D
:10067E008A150A200A128A11AC000A128A150A205B
:10068E000A128A11AD000A128A150A200A128A115C
:10069E00AE000A128A150A200A128A11AF002F081C
:1006AE004002031D642B2E083F02031D642B2D08F0
:1006BE003E02031D642B2C083D020318672B682B8A
:1006CE00692B732B0130AB002B08CA070A304A0680
:1006DE00031D722B732B322B4A084807AB004908B7
:1006EE000318490AAC0041082B07AD004208031855
:1006FE00420A2C07AE002D08B7022E08031CB803C1
:10070E00B8024808490403198D2B8E2B942BFF3009
:10071E00B7070318B80AFF30B80703303505AB002A
:10072E0000303605AC002B082C0403199F2BA02B90
:10073E00B52BFF30B7070318B80AFF30B807B52B33
:10074E00203083160313AB00470884002B08831355
:10075E0080000130AB002B08C707A02B3808803A69
:10076E00FF0080307F02031DBE2B013037020318BD
:10077E00C12BC22BA72B0330831603133505AB00F9
:10078E0000303605AC002B082C040319CF2BD02BD0
:10079E00622C2D30AB00470884002B088313800099
:1007AE000130AB002B08C707622C4A08AB000130A2
:1007BE000310AB0DFF3E031DDF2B03102B0D693E07
:1007CE0084000A128A150A200A128A11F0000A12EF
:1007DE008A150A200A128A11F1000A128A150A20B5
:1007EE000A128A11F2000A128A150A200A128A11B6
:1007FE00F3004008F7003F08F6003E08F5003D08FC
:10080E00F4000A168A15FC240A128A11730883163C
:10081E000313BC007208BB007108BA007008B9005F
:10082E00003083120313A3000030A2000030A10099
:10083E000A30A000831603133C0883120313A7008B
:10084E00831603133B0883120313A60083160313A8
:10085E003A0883120313A500831603133908831273
:10086E000313A4000A168A15E7230A128A118312AB
:10087E000313230883160313BC00831203132208E9
:10088E0083160313BB00831203132108831603136D
:10089E00BA0083120313200883160313B900390814
:1008AE00303EAB00470884002B08831380000130D4
:1008BE00AB002B08C7070130CA024A0A031D682C79
:1008CE00692CDC2B7D2C303083160313AB004708CC
:1008DE0084002B08831380000130AB002B08C70760
:1008EE00FF30C1070318C20AFF30C2074208803A20
:1008FE00FF0080307F02031D862C01304102031859
:10090E00892C8A2C6A2C831603134908803AFF001F
:10091E0080307F02031D952C09304802031C982C51
:10092E00992CA02C083083160313AB002B08CA0099
:10093E00A62C831603134808AB002B08CA004A08DE
:10094E00AB00AC012B08C8022C08031CC903C9025A
:10095E004A080319B32CB42CBF2C2E30AB00470819
:10096E0084002B08831380000130AB002B08C707CF
:10097E004A080A128A1540210A128A118312031399
:10098E00410883160313B300831203134008831622
:10099E000313B200831203133F0883160313B1002F
:1009AE00831203133E0883160313B0003308831219
:1009BE000313AB0083160313320883120313AA002A
:1009CE0083160313310883120313A900831603132E
:1009DE00300883120313A8008316031346088312EC
:1009EE000313A70083160313450883120313A600EF
:1009FE0083160313440883120313A50083160313EF
:100A0E00430883120313A4000A128A159F240A12A4
:100A1E008A11831203132708D4002608D300250851
:100A2E00D2002408D1000A128A15C4200A128A1193
:100A3E0083120313540883160313C0008312031387
:100A4E00530883160313BF00831203135208831631
:100A5E000313BE0083120313510883160313BD0044
:100A6E00192E4A08AB0001300310AB0DFF3E031DDB
:100A7E003B2D03102B0D693E84000A128A150A20A5
:100A8E000A128A11F0000A128A150A200A128A1115
:100A9E00F1000A128A150A200A128A11F2000A12AD
:100AAE008A150A200A128A11F3004008F7003F083F
:100ABE00F6003E08F5003D08F4000A168A15FC24DF
:100ACE000A128A11730883160313BC007208BB0046
:100ADE007108BA007008B900003083120313A30026
:100AEE000030A2000030A1000A30A00083160313CC
:100AFE003C0883120313A700831603133B088312CB
:100B0E000313A600831603133A0883120313A500DA
:100B1E0083160313390883120313A4000A168A15C9
:100B2E00E7230A128A118312031323088316031371
:100B3E00BC0083120313220883160313BB00831217
:100B4E000313210883160313BA008312031320081C
:100B5E0083160313B9003908303EAB0047088400F2
:100B6E002B08831380000130AB002B08C7074A08FF
:100B7E00AB0001300310AB0DFF3E031DC12D031062
:100B8E002B0D693E84000A128A150A200A128A1158
:100B9E0083120313A0000A128A150A200A128A1160
:100BAE00A1000A128A150A200A128A11A2000A123C
:100BBE008A150A200A128A11A3008316031340080D
:100BCE0083120313A700831603133F088312031324
:100BDE00A600831603133E0883120313A500831683
:100BEE0003133D0883120313A4000A168A15E72384
:100BFE000A128A1183120313230883160313C000EB
:100C0E0083120313220883160313BF0083120313E8
:100C1E00210883160313BE008312031320088316C4
:100C2E000313BD000130CA024A0A031D1F2E202ED7
:100C3E00382D322E3030AB00470884002B0883133A
:100C4E0080000130AB002B08C707FF30C807031820
:100C5E00C90AFF30C90748084904031D372E382E2C
:100C6E00212ED62F3408840083130008AB00840A8B
:100C7E000008AC002B08BD002C08BE000030BE1BC7
:100C8E00FF30BF00C0000230AB002B08B407C01FFE
:100C9E00512E522E612E0330B5040030B604BD091C
:100CAE00BE09BF09C009BD0A0319BE0A0319BF0A4E
:100CBE000319C00A48084904031D662E672E752EB7
:100CCE0040083F043E043D04031D6E2E6F2E752E0C
:100CDE000130C8070318C90A0030C907CA01CA0A79
:100CEE004A08AB0001300310AB0DFF3E031D7A2EF8
:100CFE0003102B0D693E84000A128A150A200A126F
:100D0E008A11AC000A128A150A200A128A11AD0045
:100D1E000A128A150A200A128A11AE000A128A15C0
:100D2E000A200A128A11AF002F084002031DA92EB5
:100D3E002E083F02031DA92E2D083E02031DA92ECB
:100D4E002C083D020318AC2EAD2EAE2EB82E01305F
:100D5E00AB002B08CA070A304A06031DB72EB82E61
:100D6E00772E4908803A803C031DBF2E48084A0260
:100D7E000318C22EC32ECA2E831603134808AB00C7
:100D8E002B08CA00E22E831603134908803AAB00E3
:100D9E0080302B02031DD52E4A0848020318D82E88
:100DAE00D92EE22E831603134A08AB00AC012B0892
:100DBE00C8002C08C900831603133708380403191A
:100DCE00E92EEA2EFC2E03303505AB000030360539
:100DDE00AC002B082C040319F52EF62EFC2EFF303A
:100DEE00B7070318B80AFF30B807361FFF2E002FBB
:100DFE001B2F4908803AAB003808803A2B02031D9E
:100E0E000A2F3708480203180D2F0E2F172F83169F
:100E1E0003134808B7024908031CB803B8021B2F76
:100E2E0083160313B701B8013808803A803C031DBE
:100E3E00222F37084A020318252F262F322F83160A
:100E4E0003134A08AB00AC012B08B7022C08031C95
:100E5E00B803B802362F83160313B701B80137084B
:100E6E00380403193B2F3C2F532F2030AB0047087B
:100E7E0084002B08831380000130AB002B08C707BA
:100E8E00FF30B7070318B80AFF30B8073708380421
:100E9E00031D522F532F3C2F03303505AB0000306E
:100EAE003605AC002B082C0403195E2F5F2FC82FBC
:100EBE002D30AB00470884002B08831380000130CF
:100ECE00AB002B08C707C82F003083120313A300F3
:100EDE000030A2000030A1000A30A00083160313D8
:100EEE004808AB0001300310AB0DFF3E031D7A2FF7
:100EFE0003102B0D693E84000A128A150A200A126D
:100F0E008A11F0000A128A150A200A128A11F100BB
:100F1E000A128A150A200A128A11F2000A128A157A
:100F2E000A200A128A11F3004008F7003F08F60063
:100F3E003E08F5003D08F4000A168A15FC240A1234
:100F4E008A11730883120313A7007208A600710892
:100F5E00A5007008A4000A168A15E7230A128A1142
:100F6E00831203132008303E83160313AC002C08A3
:100F7E00CA004A08AB00470884002B088313800080
:100F8E00662FFF30C8070318C90AFF30C907480A81
:100F9E00031DD52F490A031DD52FD62F6B2F0130D8
:100FAE00A007FF30200784000A128A150A200A12B1
:100FBE008A11AB002B08CA004A08031DE72FEA2F3F
:100FCE000A168A11482D47088400831380010800F1
:100FDE0083120313EE01EF018313CF308400EE3042
:100FEE000A168A1101200A128A1183010A128A1125
:100FFE00E228FF1B0A2883137F1883170008840A30
:10100E000319FF0A080008308A000408840A8207C0
:10101E0000340034003480343F3400340034203443
:10102E00413400340034C8344234003400347A344D
:10103E004434003440341C34463400345034C33409
:10104E00473400342434743449348034963418349C
:10105E004B342034BC34BE344C3428346B346E34B0
:10106E004E34F934023415345034EC347834AD3413
:10107E006034CA34F234493471340034003480346C
:10108E003F34CD34CC34CC343D340A34D7342334CD
:10109E003C346F34123483343A341734B734D13489
:1010AE003834AC34C53427343734BD343734863411
:1010BE0035349534BF34D63433347734CC342B3482
:1010CE0032345F34703489343034FF34E634DB34F8
:1010DE002E340834E5343C341E3460344234A234A9
:1010EE000D3401340034003400340A34003400343A
:1010FE0000346434003400340034E83403340034F3
:10110E0000341034273400340034A03486340134D3
:10111E000034403442340F340034803496349834E2
:10112E0000340034E134F53405340034CA349A34D2
:10113E003B34253432342E3431346634203420346A
:10114E00253432342E343134663420342034253470
:10115E006434003453343134203420342034533446
:0E116E003234203420342034533433340034EF
:10118800031083120313530D540DD5005508DB00CB
:101198005B08031DD028D128DA280030D40000309D
:1011A800D3000030D2000030D1003F295108D500CB
:1011B8005208D6005308D7005408D8001F3003102F
:1011C800D80CD70CD60CD50CFF3E031DE3285508C8
:1011D800D9005908DA00D317FF30D105FF30D205FE
:1011E800FF30D3050030D4059630DB02DB1FFD2825
:1011F800FE2818295B08803A973E03180429052918
:101208000629D12801300310D40CD30CD20CD10CF0
:10121800FF3E031D07290130D5005508DB07031DD4
:101228001629172906292F2920305B02031C1D299E
:101238001E292A29D1280130D5000310D10DD20D3D
:10124800D30DD40DD50B21290130DB025B08031D1A
:101258002E292F291F295A080319332934293F29F0
:10126800D109D209D309D409D10A0319D20A031919
:10127800D30A0319D40A080083120313D000D01F1D
:1012880046294729F42AD009D00A5008803A123E44
:10129800031C4F295029382A0A30F7000030F8007B
:1012A8005008F200F301F21BF3036430F000003041
:1012B800F1000A168A153D240A128A157108FA00E7
:1012C8007008F9000A168A1562250A128A15770825
:1012D80083120313C20001300310C20DFF3E031D29
:1012E80070290310420D593E84000A128A150A20FB
:1012F8000A128A15C3000A128A150A200A128A15C8
:10130800C4000A128A150A200A128A15C5000A1290
:101318008A150A200A128A15C6004608A700450839
:10132800A6004408A5004308A4006430F700003074
:10133800F8005008F900FA01F91BFA030A168A1591
:1013480062250A128A15770883120313C700013031
:101358000310C70DFF3E031DAC290310470D7D3E4A
:1013680084000A128A150A200A128A15C8000A126D
:101378008A150A200A128A15C9000A128A150A2033
:101388000A128A15CA000A128A150A200A128A1530
:10139800CB004B08AB004A08AA004908A900480836
:1013A800A8000A128A159F240A128A1583120313A9
:1013B8002708CF002608CE002508CD002408CC0039
:1013C8000A30F0000030F1005008F200F301F21B7F
:1013D800F3030A168A153D240A128A157008831227
:1013E8000313C20001300310C20DFF3E031DF7298D
:1013F8000310420D353E84000A128A150A200A128B
:101408008A15C3000A128A150A200A128A15C4000E
:101418000A128A150A200A128A15C5000A128A15A4
:101428000A200A128A15C6004608A7004508A60021
:101438004408A5004308A4004F08AB004E08AA00C2
:101448004D08A9004C08A8000A128A159F240A1200
:101458008A15831203132708C1002608C00025082F
:10146800BF002408BE009E2C5008803A753E031C1D
:101478003E2A3F2AC72A0A30F0000030F1005008FF
:10148800F200F301F21BF3030A168A153D240A122F
:101498008A15700883120313C20001300310C20DAD
:1014A800FF3E031D522A0310420D353E84000A12E6
:1014B8008A150A200A128A15C3000A128A150A20F8
:1014C8000A128A15C4000A128A150A200A128A15F5
:1014D800C5000A128A150A200A128A15C60046088B
:1014E800A7004508A6004408A5004308A4000A3040
:1014F800F7000030F8005008F900FA01F91BFA0368
:101508000A168A1562250A128A15770883120313A8
:10151800C70001300310C70DFF3E031D8E2A0310BC
:10152800470D593E84000A128A150A200A128A15A4
:10153800C8000A128A150A200A128A15C9000A1256
:101548008A150A200A128A15CA000A128A150A2060
:101558000A128A15CB004B08AB004A08AA004908B2
:10156800A9004808A8000A128A159F240A128A1599
:10157800831203132708C1002608C0002508BF00EE
:101588002408BE009E2C5008C20001300310C20D72
:10159800FF3E031DCA2A0310420D353E84000A127D
:1015A8008A150A200A128A15C3000A128A150A2007
:1015B8000A128A15C4000A128A150A200A128A1504
:1015C800C5000A128A150A200A128A15C60046089A
:1015D800C1004508C0004408BF004308BE009E2C57
:1015E8005008803A123E031CFA2AFB2AE32B0A30E1
:1015F800F7000030F8005008F200F301F21BF30383
:101608006430F0000030F1000A168A153D240A12F1
:101618008A157108FA007008F9000A168A156225F9
:101628000A128A15770883120313C20001300310C7
:10163800C20DFF3E031D1B2B0310420D253E8400E7
:101648000A128A150A200A128A15C3000A128A1574
:101658000A200A128A15C4000A128A150A200A12D8
:101668008A15C5000A128A150A200A128A15C600A8
:101678004608A7004508A6004408A5004308A4009A
:101688006430F7000030F8005008F900FA01F91B3F
:10169800FA030A168A1562250A128A157708831230
:1016A8000313C70001300310C70DFF3E031D572B5E
:1016B8000310470D493E84000A128A150A200A12AF
:1016C8008A15C8000A128A150A200A128A15C90042
:1016D8000A128A150A200A128A15CA000A128A15DD
:1016E8000A200A128A15CB004B08AB004A08AA0048
:1016F8004908A9004808A8000A128A159F240A1256
:101708008A15831203132708CF002608CE00250860
:10171800CD002408CC000A30F0000030F100500859
:10172800F200F301F21BF3030A168A153D240A128C
:101738008A15700883120313C20001300310C20D0A
:10174800FF3E031DA22B0310420D013E84000A1226
:101758008A150A200A128A15C3000A128A150A2055
:101768000A128A15C4000A128A150A200A128A1552
:10177800C5000A128A150A200A128A15C6004608E8
:10178800A7004508A6004408A5004308A4004F0880
:10179800AB004E08AA004D08A9004C08A8000A1280
:1017A8008A159F240A128A15831203132708C10079
:1017B8002608C0002508BF002408BE009E2C50083B
:1017C800803A753E031CE92BEA2B722C0A30F00094
:1017D8000030F1005008F200F301F21BF3030A167F
:1017E8008A153D240A128A15700883120313C20051
:1017F80001300310C20DFF3E031DFD2B0310420DE7
:10180800013E84000A128A150A200A128A15C300AA
:101818000A128A150A200A128A15C4000A128A15A1
:101828000A200A128A15C5000A128A150A200A1205
:101838008A15C6004608A7004508A6004408A50062
:101848004308A4000A30F7000030F8005008F900F7
:10185800FA01F91BFA030A168A1562250A128A1573
:10186800770883120313C70001300310C70DFF3E2A
:10187800031D392C0310470D253E84000A128A15D2
:101888000A200A128A15C8000A128A150A200A12A2
:101898008A15C9000A128A150A200A128A15CA006E
:1018A8000A128A150A200A128A15CB004B08AB00C7
:1018B8004A08AA004908A9004808A8000A128A1577
:1018C8009F240A128A15831203132708C1002608C9
:1018D800C0002508BF002408BE009E2C5008C20086
:1018E80001300310C20DFF3E031D752C0310420D7D
:1018F800013E84000A128A150A200A128A15C300BA
:101908000A128A150A200A128A15C4000A128A15B0
:101918000A200A128A15C5000A128A150A200A1214
:101928008A15C6004608C1004508C0004408BF0023
:101938004308BE0008008312031327088039AC004F
:101948002C08B1002708AC002C07AD002D08B70003
:10195800A61FAF2CB02CB12C371437080319B52C9F
:10196800B62CC52C370A031DBA2CBB2CC32C00304F
:10197800A7000030A6000030A5000030A400A6177C
:10198800CD2C0030A7000030A6000030A5000030A4
:10199800A4002B088039AC002C08B1062B08AC0039
:1019A8002C07AD002D08B600AA1FDB2CDC2CDD2C83
:1019B800361436080319E12CE22CF12C360A031DE3
:1019C800E62CE72CEF2C0030AB000030AA000030EA
:1019D800A9000030A800AA17F92C0030AB0000308D
:1019E800AA000030A9000030A80036080319FD2C11
:1019F800FE2C032D3708031D022D032D0C2D00305E
:101A0800A7000030A6000030A5000030A400FF2F7A
:101A18002408AC002C08F0002A080A168A1574223B
:101A28000A128A15710883120313BD007008BC00DE
:101A38003C08AC00AD01AE01AF012F08B5002E087F
:101A4800B4002D08B3002C08B2003D08AC00AD016D
:101A5800AE01AF012F08BB002E08BA002D08B9004F
:101A68002C08B8002508AC002C08F00029080A1634
:101A78008A1574220A128A15710883120313BD008D
:101A88007008BC003C08AC00AD01AE01AF012C08E9
:101A9800B2072D0803110318013E0319542DB3078B
:101AA8002E0803110318013E03195B2DB4072F08F4
:101AB80003110318013E0319622DB5073D08AC0058
:101AC800AD01AE01AF012C08B8072D0803110318AA
:101AD800013E0319702DB9072E0803110318013EA2
:101AE8000319772DBA072F0803110318013E0319AC
:101AF8007E2DBB072608AC002C08F00028080A1623
:101B08008A1574220A128A15710883120313BD00FC
:101B18007008BC003C08AC00AD01AE01AF012C0858
:101B2800B2072D0803110318013E03199C2DB307B2
:101B38002E0803110318013E0319A32DB4072F081B
:101B480003110318013E0319AA2DB5073D08AC007F
:101B5800AD01AE01AF012C08B8072D080311031819
:101B6800013E0319B82DB9072E0803110318013EC9
:101B78000319BF2DBA072F0803110318013E0319D3
:101B8800C62DBB070830AC000310B20DB30DB40D61
:101B9800B50DAC0BC82D2508AC002C08F0002808A2
:101BA8000A168A1574220A128A15710883120313F9
:101BB800BD007008BC003C08AC003D08AD00AE019B
:101BC800AF012C08B2072D0803110318013E0319B1
:101BD800EE2DB3072E0803110318013E0319F52D46
:101BE800B4072F0803110318013E0319FC2DB5078C
:101BF8002408AC002C08F00029080A168A1574225B
:101C08000A128A15710883120313BD007008BC00FC
:101C18003C08AC003D08AD00AE01AF012C08B2078E
:101C28002D0803110318013E03191B2EB3072E08B4
:101C380003110318013E0319222EB4072F080311BC
:101C48000318013E0319292EB5070830AC0003100C
:101C5800B20DB30DB40DB50DAC0B2B2E2408AC0092
:101C68002C08F00028080A168A1574220A128A1508
:101C7800710883120313BD007008BC003C08AC0057
:101C88003D08AD00AE01AF012C08B2072D080311C5
:101C98000318013E0319512EB3072E080311031828
:101CA800013E0319582EB4072F0803110318013EEB
:101CB80003195F2EB5072508AC002C08F0002A0888
:101CC8000A168A1574220A128A15710883120313D8
:101CD800BD007008BC003C08AC003D08AD00AE017A
:101CE800AF012C08B8072D0803110318013E03198A
:101CF8007E2EB9072E0803110318013E0319852EFD
:101D0800BA072F0803110318013E03198C2EBB07CD
:101D18002608AC002C08F00029080A168A15742237
:101D28000A128A15710883120313BD007008BC00DB
:101D38003C08AC003D08AD00AE01AF012C08B80767
:101D48002D0803110318013E0319AB2EB9072E08FD
:101D580003110318013E0319B22EBA072F08031105
:101D68000318013E0319B92EBB072608AC002C083E
:101D7800F0002A080A168A1574220A128A157108B0
:101D880083120313BD007008BC003C08AC003D087A
:101D9800AD00AE01AF0108300310AC0DAD0DAE0DB6
:101DA800AF0DFF3E031DD02E2C08B8072D080311D8
:101DB8000318013E0319E12EB9072E080311031871
:101DC800013E0319E82EBA072F0803110318013E34
:101DD8000319EF2EBB073208AC003308AD003408F6
:101DE800AE003508AF0018300310AF0CAE0CAD0CC8
:101DF800AC0CFF3E031DF82E2C08B8072D08031164
:101E08000318013E0319092FB9072E0803110318F7
:101E1800013E0319102FBA072F0803110318013EBA
:101E28000319172FBB070830AC000310B20DB30D10
:101E3800B40DB50DAC0B192F37083607AC00AD0142
:101E4800AD0D2C08823EBC002D080318013EFF3E54
:101E5800BD004B2F0130AC000310B80DB90DBA0D01
:101E6800BB0DAC0B302FB51F3A2F3B2F3C2F38142E
:101E78000130AC000310B20DB30DB40DB50DAC0BB1
:101E88003E2FFF30BC070318BD0AFF30BD07BA1F3D
:101E98004E2F4F2F2E2FB601B51F532F542F702FB3
:101EA800FF303205AC00FF303305AD00FF3034059C
:101EB800AE007F303505AF002F082E042D042C040A
:101EC8000319672F682F6B2FB601B60A702F381CBD
:101ED8006E2F6F2F702F682F36080319742F752FE8
:101EE800A62F0130B807003003180130B9070030B9
:101EF80003180130BA07003003180130BB073B1C38
:101F0800862F872FA62F3808AC003908AD003A086D
:101F1800AE003B08AF000130B0002F0DAF0CAE0C87
:101F2800AD0CAC0CB00B912F2F08BB002E08BA00DB
:101F38002D08B9002C08B8000130BC070318BD0AE9
:101F48000030BD073D08803AFF0080307F02031D46
:101F5800AF2FFF303C02031CB22FB32FBE2F7F30B0
:101F680083120313BB008030BA000030B900003080
:101F7800B800F32F831203133D08803AFF00803026
:101F88007F02031DC92F01303C020318CC2FCD2F2F
:101F9800D92F003083120313BB000030BA00003081
:101FA800B9000030B800B101F32F831203133C08C5
:101FB800AC002C08B700FF30B805FF30B9057F30FA
:101FC800BA050030BB05371CEA2FEB2FEC2FBA17E8
:101FD8003708AC0003102C0CAD002D08BB003108ED
:101FE800AC002C08BB043B08A7003A08A600390837
:081FF800A5003808A400080050
:1020020064008001840A04060319003404060228CD
:1020120000307005F80000307105F900803072055B
:10202200FA007F307305FB007B087A047904780498
:10203200031D1C281D2825280030F3000030F20063
:102042000030F1000030F00000307405F80000307C
:102052007505F90080307605FA007F307705FB00C0
:102062007B087A0479047804031D3828392841282A
:102072000030F7000030F6000030F5000030F400C8
:10208200F31F4428452869280030F8000030F90081
:102092000030FA008030FB007008F8027108031C5F
:1020A200710F54285528F9027208031C720F5A281E
:1020B2005B28FA027308031C730F60286128FB0275
:1020C2007B08F3007A08F2007908F1007808F00042
:1020D200F71F6C286D2891280030F8000030F900B5
:1020E2000030FA008030FB007408F8027508031C07
:1020F200750F7C287D28F9027608031C760F82284A
:102102008328FA027708031C770F88288928FB02A4
:102112007B08F7007A08F6007908F5007808F400E1
:102122008030F3068030F70677087302031DA32878
:1021320076087202031DA32875087102031DA328E5
:10214200740870020318A628A728A9280310AA2831
:102152000314080083120313D1006E305102031CD2
:10216200B328B428C1293F30A7000030A6000030B0
:10217200A5000030A4006430F6000030F7005108DA
:10218200C200C3014208F8004308F9000A168A1582
:1021920055230A168A11760883120313C4000130EC
:1021A2000310C40DFF3E031DD1280310440D7D3ED4
:1021B20084000A128A150A200A168A11C5000A1218
:1021C2008A150A200A168A11C6000A128A150A20DE
:1021D2000A168A11C7000A128A150A200A168A11DB
:1021E200C8004808AB004708AA004608A9004508ED
:1021F200A8000A128A159F240A168A118312031351
:102202002708D0002608CF002508CE002408CD00DC
:102212000A30F6000030F7005108C200C30142083C
:10222200F2004308F3006430F0000030F1000A16B7
:102232008A159B220A168A117108F9007008F800A3
:102242000A168A1555230A168A1176088312031371
:10225200C40001300310C40DFF3E031D2B290310DF
:10226200440D593E84000A128A150A200A168A1160
:10227200C5000A128A150A200A168A11C6000A1215
:102282008A150A200A168A11C7000A128A150A201C
:102292000A168A11C8004808A7004708A60046087F
:1022A200A5004508A4005008AB004F08AA004E083C
:1022B200A9004D08A8000A128A159F240A168A113D
:1022C200831203132708CC002608CB002508CA0076
:1022D2002408C9000A30F0000030F1005108C200A1
:1022E200C3014208F2004308F3000A168A159B2232
:1022F2000A168A11700883120313C40001300310F6
:10230200C40DFF3E031D80290310440D353E840099
:102312000A128A150A200A168A11C5000A128A159B
:102322000A200A168A11C6000A128A150A200A16FB
:102332008A11C7000A128A150A200A168A11C800D1
:102342004808A7004708A6004608A5004508A400BB
:102352004C08AB004B08AA004A08A9004908A8008B
:102362000A128A159F240A168A1183120313270858
:10237200C1002608C0002508BF002408BE00B52AF7
:102382000B305102031CC629C729722A3F30A7000D
:102392000030A6000030A5000030A4000A30F6008C
:1023A2000030F7005108C200C3014208F800430898
:1023B200F9000A168A1555230A168A11760883121D
:1023C2000313C40001300310C40DFF3E031DE429B2
:1023D2000310440D593E84000A128A150A200A1677
:1023E2008A11C5000A128A150A200A168A11C60025
:1023F2000A128A150A200A168A11C7000A128A15B9
:102402000A200A168A11C8004808AB004708AA0029
:102412004608A9004508A8000A128A159F240A1630
:102422008A11831203132708D0002608CF0025083B
:10243200CE002408CD000A30F0000030F10051082F
:10244200C200C3014208F2004308F3000A168A15CB
:102452009B220A168A11700883120313C4000130EA
:102462000310C40DFF3E031D312A0310440D353EF7
:1024720084000A128A150A200A168A11C5000A1255
:102482008A150A200A168A11C6000A128A150A201B
:102492000A168A11C7000A128A150A200A168A1118
:1024A200C8004808A7004708A6004608A500450836
:1024B200A4005008AB004F08AA004E08A9004D081E
:1024C200A8000A128A159F240A168A11831203137E
:1024D2002708C1002608C0002508BF002408BE0046
:1024E200B52A3F30A7000030A6000030A50000301A
:1024F200A4005108C20001300310C20DFF3E031DAB
:102502007D2A0310420D353E84000A128A150A20E4
:102512000A168A11C3000A128A150A200A168A119B
:10252200C4000A128A150A200A168A11C5000A1264
:102532008A150A200A168A11C6004608AB00450809
:10254200AA004408A9004308A8000A128A159F2479
:102552000A168A11831203132708C1002608C00035
:102562002508BF002408BE00080083120313550883
:102572008039DA005A08E2005508DA005A07DB000F
:102582005B08E400D41FC62AC72AC82A6414640858
:102592000319CC2ACD2ADD2A640A031DD12AD22AA4
:1025A200DA2A0030D5000030D4000030D3000030E9
:1025B200D200D417D501E52A0030D5000030D4006E
:1025C2000030D3000030D20059088039DA005A08AE
:1025D200E300630862060319EF2AF02AF12A621760
:1025E2005908DA005A07DB005B08E300D81FFA2A11
:1025F200FB2AFC2A631463080319002B012B112BFD
:10260200630A031D052B062B0E2B0030D900003068
:10261200D8000030D7000030D600D817D901192BC6
:102622000030D9000030D8000030D7000030D6008A
:102632006408630203181E2B1F2B632B621F222BBD
:10264200232B272B8030DA005A08E2066408DA00CE
:102652005A08E5006308DA005A08E4006508DA005F
:102662005A08E3005208DA005A08E5005608DA0070
:102672005A08D2006508DA005A08D6005308DA0070
:102682005A08E5005708DA005A08D3006508DA004C
:102692005A08D7005408DA005A08E5005808DA0048
:1026A2005A08D4006508DA005A08D8005508DA003A
:1026B2005A08E5005908DA005A08D5006508DA0018
:1026C2005A08D900E5016308DA00DB015B08DD0086
:1026D20064085A02DC00031CDD035D08803AFF0037
:1026E20080307F02031D772B1A305C02031C7A2B89
:1026F2007B2BB82B83120313550854045304520442
:10270200031D842B862B0130872B0030DA005A08F8
:10271200E5000030D5000030D4000030D300003096
:10272200D2006308DA005A08E400C02B651C9A2B19
:102732009B2BA42B6508DA0003105A0C0138DB002E
:102742005B08E500A62B0310E50C521CA92BAA2B53
:10275200AB2BE5170130DA00550DD50CD40CD30C98
:10276200D20CDA0BAD2B0130DA005A08E4078312DF
:10277200031363086402031CBF2BC02B972B621B3D
:10278200C32BC42B0F2C6408031DC82BC92BD22BBF
:102792000030D5000030D4000030D3000030D20029
:1027A2003D2D5608D207570803110318013E03199D
:1027B200DB2BD307580803110318013E0319E22B40
:1027C200D407590803110318013E0319E92BD50751
:1027D200551CEC2BED2BC32C651CF02BF12BFA2B8B
:1027E2006508DA0003105A0C0138DB005B08E500CB
:1027F200FC2B0310E50C521CFF2B002C012CE517BF
:102802000130DA00550DD50CD40CD30CD20CDA0BF6
:10281200032C0130DA005A08E407C32C5508803A29
:10282200FF005908803A7F02031D212C58085402E8
:10283200031D212C57085302031D212C5608520256
:102842000318242C252C7D2CFF30DA00FF30DB000E
:10285200FF30DC00FF30DD005608DE005708DF00E5
:102862005808E0005908E1005208DE025308031C30
:10287200530F3C2C3D2CDF025408031C540F422CF6
:10288200432CE0025508031C550F482C492CE10249
:102892005E08DA075F0803185F0F502C512CDB0724
:1028A20060080318600F562C572CDC0761080318C8
:1028B200610ADD075D08D5005C08D4005B08D3001F
:1028C2005A08D2008030DA005A08E206E509E50A21
:1028D2006508031D6D2C6E2C8B2C0130D207003045
:1028E20003180130D307003003180130D407003039
:1028F20003180130D5078B2C5608D2025708031C47
:10290200570FD3025808031C580FD4025908031C4E
:10291200590FD5025508540453045204031D922C36
:10292200932CBF2C6508031D972C982CBF2C0030CC
:10293200D5000030D4000030D3000030D2003D2D4D
:102942000130DA000310D20DD30DD40DD50DDA0B00
:10295200A32CE51FAD2CAE2CAF2C5214651CB22C4F
:10296200B32CB62C0314E50DB82C0310E50D640846
:102972000319BC2CBD2CBF2C0130E402D41FC22C85
:10298200C32CA12CE301E51FC72CC82CD62C65084B
:102992007F390319CD2CCE2CD12CE301E30AD62C9E
:1029A200521CD42CD52CD62CCE2C63080319DA2C2D
:1029B200DB2C0F2D0130D207003003180130D30772
:1029C200003003180130D407003003180130D50756
:1029D200551CEC2CED2C0F2D5208DA005308DB00AD
:1029E2005408DC005508DD000130DE005D0DDD0C11
:1029F200DC0CDB0CDA0CDE0BF72C5D08D5005C0876
:102A0200D4005B08D3005A08D200640A03190A2DC5
:102A12000B2D0F2D0130DA005A08E407640A03195E
:102A2200132D142D192D6408031D182D192D272D72
:102A32000030D5000030D4000030D3000030D20086
:102A42006408031D252D262D272DE201641C2A2D45
:102A52002B2D2D2DD417312D7F30DA005A08D405B5
:102A62006408DA0003105A0CDB005B08D500E21F91
:102A72003B2D3C2D3D2DD517080083160313C700AF
:102A8200A130AB002B08B4000A128A11D62F2530D0
:102A92004A0603194D2D4E2D5A2D4A08AB00470800
:102AA20084002B08831380000130AB002B08C7077A
:102AB200452DB701B801B501B601200884000A12FC
:102AC2008A150A200A168A110A168A15A0210A16E0
:102AD2008A11031C6D2D6E2DAE2D83160313B701C3
:102AE200B8010A30F0000030F100831603133808F1
:102AF200F3003708F2000A168A154F220A168A11C5
:102B0200710883160313B8007008B7002008840008
:102B12000A128A150A200A168A11D03EAB00FF302B
:102B220003180030AC002B08B7070318B80A2C08AA
:102B3200B8070130AB002B08A007200884000A1256
:102B42008A150A200A168A110A168A15A0210A165F
:102B52008A110318AD2DAE2D722D83160313200892
:102B620084000A128A150A200A168A112E3A031DB7
:102B7200BB2DBC2D012E36170130AB002B08A00750
:102B8200C801C901F02D0A30F0000030F1008316AF
:102B920003134908F3004808F2000A168A154F2267
:102BA2000A168A11710883160313C9007008C80037
:102BB200200884000A128A150A200A168A11D03EB9
:102BC200AB00FF3003180030AC002B08C807031815
:102BD200C90A2C08C9070130AB002B08A00720083E
:102BE20084000A128A150A200A168A110A168A1500
:102BF200A0210A168A110318FF2D002EC42D072EBC
:102C0200C801C9013616072E3615292E0130831642
:102C12000313A007FF30200784000A128A150A2036
:102C22000A168A11CA00AB00AC012C08003A03193B
:102C32001B2E452D2B08003A0319FD2F643A031968
:102C4200292E023A0319052E0F3A0319292E452D72
:102C520000303505AB0007303605AC002B082C04DC
:102C62000319342E372E0A128A11392E361E3A2EA5
:102C72003B2E3F2E0630C8000030C90034088400C5
:102C820083130008C300840A0008C400840A0008F1
:102C9200C500840A0008C6000430AB002B08B40744
:102CA2004608F3004508F2004408F1004308F0002A
:102CB2000030F7000030F6000030F5000030F4007C
:102CC2000A168A1109200A168A110318692E6A2E19
:102CD200872E831603134608F3004508F2004408C2
:102CE200F1004308F0000A168A1588210A168A1193
:102CF200730883160313C6007208C5007108C40066
:102D02007008C3000330B5040030B6048316031301
:102D1200C101C2014608F3004508F2004408F1006F
:102D22004308F0000030F7000030F6000030F500F4
:102D32000030F4000A168A1599230A168A1103181C
:102D4200A32EA42E942F031083160313450D460DB4
:102D5200823EC100FF3003180030C200FF30C107BD
:102D62000318C20AFF30C2070330F0000030F1003E
:102D72004208F3004108F2000A168A154F220A1689
:102D82008A11710883160313C2007008C1000A3049
:102D9200F7000030F8004208FA004108F9000A166C
:102DA2008A1562250A168A11780883160313C2004F
:102DB2007708C100C21FDE2EDF2EE52EFF30C107CD
:102DC2000318C20AFF30C2074103FF3A0A128A15EA
:102DD20040210A168A118312031341088316031332
:102DE200BC0083120313400883160313BB00831233
:102DF20003133F0883160313BA00831203133E081A
:102E020083160313B900460883120313A70083161F
:102E12000313450883120313A60083160313440801
:102E220083120313A50083160313430883120313AB
:102E3200A400831603133C0883120313AB0083160A
:102E420003133B0883120313AA00831603133A08E1
:102E520083120313A9008316031339088312031381
:102E6200A8000A128A159F240A168A1183120313D4
:102E7200270883160313BC00831203132608831644
:102E82000313BB0083120313250883160313BA002E
:102E920083120313240883160313B9003C08F300BA
:102EA2003B08F2003A08F1003908F0003F30F70021
:102EB2008030F6000030F5000030F4000A168A1166
:102EC20009200A168A110318672F682F712FFF3005
:102ED20083160313C1070318C20AFF30C207942FD7
:102EE200831603133C08F3003B08F2003A08F10092
:102EF2003908F0004130F7002030F6000030F500CC
:102F02000030F4000A168A1109200A168A11031CDD
:102F12008B2F8C2F942F013083160313C1070318B4
:102F2200C20A0030C207831603134908803AFF0021
:102F320080307F02031D9F2F0D3048020318A22FFD
:102F4200A32FEA2F8316031348080A168A11AB200F
:102F52000A168A11831203134108D5004008D400CF
:102F62003F08D3003E08D20083160313460883129B
:102F72000313D90083160313450883120313D800E1
:102F820083160313440883120313D7008316031313
:102F9200430883120313D6000A168A11B6220A16B0
:102FA2008A1183120313550883160313C600831272
:102FB2000313540883160313C50083120313530823
:102FC20083160313C40083120313520883160313D8
:102FD200C300831603134208803AFF0080307F0249
:102FE200031DF52F0A3041020318FA2F0A128A1123
:0E2FF200E9290A128A113A2A0A128A11EA2FD4
:10331000730872047104700403198F29902992298B
:103320008030F306080000300A168A15E7210A16D5
:103330008A1501300A168A15E7210A168A1508002F
:10334000F100F0013A3071020318A729A829B02929
:1033500030307102031CAD29AE29B029F001F00A0A
:10336000700C080083160317880189018316031364
:1033700005148514880189018312031385018701CF
:10338000880189010B17831603138C16831203130C
:103390008C128B170800F2008312031309147208B1
:1033A0000A168A15D5220A168A1583120313891460
:1033B000D929DA290000831203138910DF29E029B3
:1033C00000001030F100F10BE32900000800F300C9
:1033D00083120313091073080A168A15D5220A16D8
:1033E0008A15831203138914F529F6290000831224
:1033F00003138910FB29FC2900000330F2009730E9
:10340000F100F10B012AF20B012A062A0800F6004E
:103410007603031D0C2A0D2A192A7408803EF50034
:103420007508F70077080A168A15E7210A168A1523
:103430002A2A02307606031D1E2A1F2A2A2A740809
:10344000C03EF5007508F70077080A168A15E721CF
:103450000A168A150800803083120313E9066D08E6
:10346000D5006C08D4006B08D3006A08D200690844
:10347000D9006808D8006708D7006608D6000A1681
:103480008A11B6220A168A15831203135508E90019
:103490005408E8005308E7005208E6000800F40169
:1034A000F501701C542A552A5B2A7208F407031888
:1034B000F50A7308F50701300310F20DF30DFF3E16
:1034C000031D5C2A01300310F10CF00CFF3E031DBC
:1034D000632A70087104031D6E2A6F2A512A750829
:1034E000F1007408F0000800F800F401F50170081C
:1034F000F200F3017208F6007308F700781C812AC5
:10350000822A882A7608F4070318F50A7708F5074F
:1035100001300310F60DF70DFF3E031D892A03103D
:10352000F80C7808031D952A962A7E2A7508F10062
:103530007408F0000800700871040319A02AA12A79
:10354000D02AF501F50AAF2A01300310F00DF10D74
:10355000FF3E031DA52A0130F4007408F507F11F92
:10356000B22AB32AA42A71087302031DB92A70086B
:103570007202031CBC2ABD2AC32A7008F202710819
:10358000031CF303F30201300310F10CF00CFF3EB7
:10359000031DC42A0130F502031DCF2AD02AB32A05
:1035A0007308F1007208F0000800F000701CD92ABE
:1035B000DA2ADE2A831203130814E12A8312031382
:1035C0000810F01CE42AE52AE72A8814E82A881063
:1035D000701DEB2AEC2AEE2A0815EF2A0811F01DBF
:1035E000F22AF32AF52A8815F62A8811701EF92A7C
:1035F000FA2AFC2A0816FD2A0812F01E002B012BBD
:10360000032B8816042B8812701F072B082B0A2BFC
:1036100008170B2B0813F01F0E2B0F2B112B8817DD
:10362000122B88130800F801F901382B780873076A
:10363000F6007408F5000318F50AF81F202BF503AF
:103640007508F700770883120313FF0076088400DB
:103650000A128A1500200A168A150A168A15CB2125
:103660000A168A150130F8070318F90A0030F9071D
:1036700078087307F6007408F5000318F50AF81FB8
:10368000422BF5037508F700770883120313FF0038
:10369000760884000A128A1500200A168A15003A54
:1036A000031D532B542B162B0800FB01FC0176083D
:1036B000770403195C2B5D2B942BFD01FD0A6B2B0A
:1036C00001300310F60DF70DFF3E031D612B013095
:1036D000FA007A08FD07F71F6E2B6F2B602B013065
:1036E0000310FB0DFC0DFF3E031D702B77087902C4
:1036F000031D7C2B76087802031C7F2B802B872BE5
:103700007608F8027708031CF903F9027B140130EC
:103710000310F70CF60CFF3E031D882B0130FD0251
:10372000031D932B942B6F2B7C08F7007B08F6006E
:10373000080000307005F80000307105F900803095
:103740007205FA007F307305FB007B087A04790468
:103750007804031DAC2BAD2BB52B0030F3000030EB
:10376000F2000030F1000030F00000307405F80085
:1037700000307505F90080307605FA007F30770556
:10378000FB007B087A0479047804031DC82BC92B3D
:10379000D12B0030F7000030F6000030F50000308B
:1037A000F40077087306031DDF2B76087206031DED
:1037B000DF2B75087106031DDF2B740870060319D3
:1037C000E22BE32BE52B0310E62B031408008312F6
:1037D000031323082204210420040319F02BF12BE6
:1037E000342CA901A90A012C0130A8000310A00D56
:1037F000A10DA20DA30DA80BF62B0130A8002808DF
:10380000A907A31F042C052CF42B23082702031D52
:10381000132C22082602031D132C21082502031D48
:10382000132C20082402031C162C172C252C2008EE
:10383000A4022108031C210FA5022208031C220F49
:10384000A6022308031C230FA70201300310A30CB8
:10385000A20CA10CA00CFF3E031D262C0130A902D6
:10386000031D332C342C052C2708A3002608A200A6
:103870002508A1002408A0000800F601F31F412C30
:10388000422C492CF209F309F20A0319F30AF60152
:10389000F60AF11F4C2C4D2C522CF009F109F00ABC
:1038A0000319F10A700871040319572C582C872C3E
:1038B000F501F50A662C01300310F00DF10DFF3E05
:1038C000031D5C2C0130F4007408F507F11F692C0E
:1038D0006A2C5B2C71087302031D702C7008720235
:1038E000031C732C742C7A2C7008F2027108031CD0
:1038F000F303F30201300310F10CF00CFF3E031D43
:103900007B2C0130F502031D862C872C6A2C76084F
:1039100003198B2C8C2C912CF209F309F20A031950
:10392000F30A7308F1007208F00008001A30F5007D
:10393000F830F400F40B9A2CF50B9A2C0000303080
:103940000A168A15E7210A168A150730F5007D3018
:10395000F400F40BA92CF50BA92C30300A168A15AB
:10396000E7210A168A152130F400F40BB52C30300B
:103970000A168A15E7210A168A152130F400F40B7D
:10398000BF2C38300A168A15E7210A168A1513301B
:10399000F400F40BC92CCC2C08300A168A15E72148
:1039A0000A168A151330F400F40BD42CD72C0130EE
:1039B0000A168A15E7210A168A150730F5007D30A8
:1039C000F400F40BE12CF50BE12C06300A168A15F5
:1039D000E7210A168A151330F400F40BED2CF02CB5
:1039E0000C300A168A15E7210A168A151330F400DE
:1039F000F40BF82CFB2C08000030FC000030FB001E
:103A00000030FA000030F900730872047104700489
:103A100003190B2D0C2D592DFD01FD0A1C2D013014
:103A2000F8000310F00DF10DF20DF30DF80B112D50
:103A30000130F8007808FD07F31F1F2D202D0F2DF2
:103A40000130F8000310F90DFA0DFB0DFC0DF80B19
:103A5000222D73087702031D372D72087602031D8D
:103A6000372D71087502031D372D70087402031C71
:103A70003A2D3B2D4A2D7008F4027108031C710F7A
:103A8000F5027208031C720FF6027308031C730F11
:103A9000F702791401300310F30CF20CF10CF00C66
:103AA000FF3E031D4B2D0130FD02031D582D592DE6
:103AB000202D7C08F3007B08F2007A08F1007908D9
:103AC000F000080083120313A101F81F682D692D6F
:103AD000702DF709F809F70A0319F80AA101A10ADC
:103AE000FA1F732D742D7D2DF909FA09F90A0319AE
:103AF000FA0A0130FB007B08A106A201A3017708A6
:103B000078040319842D852DBC2DA001A00A932DC6
:103B100001300310F70DF80DFF3E031D892D013014
:103B2000FB007B08A007F81F962D972D882D0130EC
:103B30000310A20DA30DFF3E031D982D78087A02F5
:103B4000031DA42D77087902031CA72DA82DAF2DE6
:103B50007708F9027808031CFA03FA0222140130EC
:103B60000310F80CF70CFF3E031DB02D0130A0022E
:103B7000031DBB2DBC2D972D21080319C02DC12D70
:103B8000C62DA209A309A20A0319A30A2308F80053
:103B90002208F7000800F80078080319D02DD12D6D
:103BA000E52DF31FD42DD52DE52D7009FA007109EF
:103BB000FB007209FC007309FD00FA0A0319FB0AF5
:103BC0000319FC0A0319FD0AED2D7308FD007208A4
:103BD000FC007108FB007008FA007308720471049D
:103BE0007004031DF42DF52DFE2D0030F300003080
:103BF000F2000030F1000030F000842E9630F40026
:103C00007408F900102E0130F4007408F90701302F
:103C10000310FD0CFC0CFB0CFA0CFF3E031D082EE0
:103C2000FE307D05031D152E162E032E322E01307B
:103C3000F4007408F9070130FA0700300318013066
:103C4000FB07003003180130FC0700300318013077
:103C5000FD0701300310FD0CFC0CFB0CFA0CFF3EC1
:103C6000031D2A2EFF307D05031D372E382E172EFB
:103C7000442E0130F9020130F4000310FA0DFB0D5F
:103C8000FC0DFD0DF40B3D2EFC1B472E482E4E2E39
:103C90000230790203184D2E4E2E392E7918512EEE
:103CA000522E5A2EFF30FA05FF30FB057F30FC05FF
:103CB000FF30FD050310F90C7908F400F501F60159
:103CC000F70118300310F40DF50DF60DF70DFF3E5A
:103CD000031D622E7408FA047508FB047608FC04C0
:103CE0007708FD0478080319762E772E7C2EF31FB3
:103CF0007A2E7B2E7C2EFD177D08F3007C08F200C7
:103D00007B08F1007A08F00008007008F8007108DC
:103D1000F9007208FA000310790D7A0DFB007B0898
:103D200083120313A5002508031D972E982EA12E9C
:103D30000030F3000030F2000030F1000030F000FD
:103D4000412F7408F8007508F9007608FA0003108E
:103D5000790D7A0DFB007B08A4002408031DB12E09
:103D6000B22EB32E982EF117FF30F005FF30F1057B
:103D70000030F205F517FF30F405FF30F50500308F
:103D8000F6050030A3000030A2000030A100003092
:103D9000A0007F30A50298302407F8007808A5021B
:103DA0001830F8007808A4000130F8000310A00DC6
:103DB000A10DA20DA30DF80BD62E76087202031DDD
:103DC000E72E75087102031DE72E74087002031CAC
:103DD000EA2EEB2EF62E7408F0027508031C750F00
:103DE000F1027608031C760AF20220140130031057
:103DF000F00DF10DF20DFF3E031DF72E0130A40270
:103E0000031D032F042FD42EA51F072F082F222FA9
:103E10002508803A973E03180E2F0F2F102F982E4B
:103E200001300310A30CA20CA10CA00CFF3E031D3B
:103E3000112F0130F8007808A507031D202F212F2E
:103E4000102F392F18302502031C272F282F342F2D
:103E5000982E0130F8000310A00DA10DA20DA30DA6
:103E6000F80B2B2F0130A5022508031D382F392F01
:103E7000292F2308F3002208F2002108F10020086E
:103E8000F00008000310720D730DF800780883121B
:103E90000313A5002508031D4E2F4F2F582F003068
:103EA000F3000030F2000030F1000030F000FF2F8E
:103EB0000310760D770DF8007808A4002408031D80
:103EC000622F632F642F4F2FF217FF30F005FF3062
:103ED000F105FF30F2050030F305F617FF30F40569
:103EE000FF30F505FF30F6050030F7050030A30080
:103EF0000030A2000030A1000030A0007F30A502F9
:103F0000A0302407F8007808A5022030F8007808CF
:103F1000A4000130F8000310A00DA10DA20DA30D07
:103F2000F80B8B2F77087302031DA02F76087202FF
:103F3000031DA02F75087102031DA02F74087002C5
:103F4000031CA32FA42FB32F7408F0027508031CC1
:103F5000750FF1027608031C760FF2027708031C36
:103F6000770FF30220140130F8000310F00DF10D6B
:103F7000F20DF30DF80BB52F0130A402031DC12F74
:103F8000C22F892FA51FC52FC62FE02F2508803AE5
:103F90009F3E0318CC2FCD2FCE2F4F2F0130031073
:103FA000A30CA20CA10CA00CFF3E031DCF2F0130CF
:103FB000F8007808A507031DDE2FDF2FCE2FF72F7F
:103FC00020302502031CE52FE62FF22F4F2F013062
:103FD000F8000310A00DA10DA20DA30DF80BE92F01
:103FE0000130A5022508031DF62FF72FE72F230820
:103FF000F3002208F2002108F1002008F000080078
:04400E00D420FF3F7C
:00000001FF
