:020000040000FA
:060000000A128A110E280D
:10000800FE00030EF4000408F5000A08F6000A12C0
:100018008A1129280A128A11112883133030FD0009
:100028000130FE002030FF00203084000A128A11BF
:1000380011210A128A11F701F801F901FA01FB01ED
:10004800FC0183010A128A11C028831203130C1FB2
:100058002E282F2840281F0CF200720C0F39003A66
:10006800031D372838283F281E08F200F3017208BC
:10007800F7007308F8000C130B1D432844286A285E
:100088000910891030033104031D4B284C285928C6
:1000980009147D080A128A113D210A128A11831255
:1000A80003138800B001B1016728891432080A12C5
:1000B8008A113D210A128A11831203138800013024
:1000C800B0000030B1000B11FF3081000B1C6D280F
:1000D8006E287D2806187128722875280708013EA1
:1000E80087008618782879287C280708FF3E87002B
:1000F8000B1076088A0075088400740E8300FE0EC3
:100108007E0E0900013083120313B0000030B100E5
:100118000130831603178800890183160313051419
:100128000614861486138701880189018312031334
:1001380085018601870188018901831603130F133E
:100148008F160F120F1481128111011581140114D9
:10015800811303309500161496148B170B148B1506
:100168000B170B110C17831203130C130A128A11A5
:1001780030210A128A1108000A128A1186200A12EE
:100188008A1177080A128A11F7200A128A11831233
:1001980003139F18D028D128D728D228D328D428A9
:1001A800831203139F140A128A11E0200A128A117B
:1001B800C5280A128A110E287808803A8312031378
:1001C800B30080303302031DEB28070877020318B9
:1001D800EE28EF28F328831203138613F6288312D8
:1001E80003138617080083120313B50035080F3967
:1001F800B3003308B2003508B30004300310B30C61
:10020800FF3E031D022933080F39B4003408FD00EE
:1002180008007E088A007F0882000A128A110D21D0
:100228000A128A118000840A04087D060319003422
:10023800FF0A0319FE0A11293F3406345B344F3490
:1002480066346D347D3407347F346F3477347C34CE
:1002580039345E3479347134C330831203139F0503
:100268009F171F171F14831603139F131F129F1224
:100278000800F1007108203E840083130008F00094
:080288007008FB007B08080070
:04400E00D420FF3F7C
:00000001FF
